{
  "contractName": "ERC1155TokenFactory",
  "abi": [
    {
      "inputs": [],
      "stateMutability": "nonpayable",
      "type": "constructor"
    },
    {
      "anonymous": false,
      "inputs": [
        {
          "indexed": false,
          "internalType": "string",
          "name": "name",
          "type": "string"
        },
        {
          "indexed": false,
          "internalType": "address",
          "name": "contractAddress",
          "type": "address"
        }
      ],
      "name": "CreateNewERC1155Token",
      "type": "event"
    },
    {
      "inputs": [
        {
          "internalType": "uint256",
          "name": "",
          "type": "uint256"
        }
      ],
      "name": "ERC1155TokenArray",
      "outputs": [
        {
          "internalType": "contract ERC1155Token",
          "name": "",
          "type": "address"
        }
      ],
      "stateMutability": "view",
      "type": "function",
      "constant": true
    },
    {
      "inputs": [
        {
          "internalType": "string",
          "name": "name",
          "type": "string"
        }
      ],
      "name": "getContractAddressByName",
      "outputs": [
        {
          "internalType": "address",
          "name": "",
          "type": "address"
        }
      ],
      "stateMutability": "view",
      "type": "function",
      "constant": true
    },
    {
      "inputs": [
        {
          "internalType": "string",
          "name": "name",
          "type": "string"
        },
        {
          "internalType": "address",
          "name": "contractAddress",
          "type": "address"
        }
      ],
      "name": "setContractAddressByName",
      "outputs": [],
      "stateMutability": "nonpayable",
      "type": "function"
    },
    {
      "inputs": [
        {
          "internalType": "string",
          "name": "name",
          "type": "string"
        },
        {
          "internalType": "string",
          "name": "symbol",
          "type": "string"
        },
        {
          "internalType": "string",
          "name": "baseURI",
          "type": "string"
        }
      ],
      "name": "createNewERC1155Token",
      "outputs": [],
      "stateMutability": "nonpayable",
      "type": "function"
    },
    {
      "inputs": [],
      "name": "totalDeployedContract",
      "outputs": [
        {
          "internalType": "uint256",
          "name": "",
          "type": "uint256"
        }
      ],
      "stateMutability": "view",
      "type": "function",
      "constant": true
    }
  ],
  "bytecode": "0x608060405234801561001057600080fd5b506144f2806100206000396000f3fe60806040523480156200001157600080fd5b50600436106200007a577c01000000000000000000000000000000000000000000000000000000006000350463115e184581146200007f5780637a765133146200009557806382760fca14620000c5578063b2a6ead414620000dc578063e22a89e414620000f5575b600080fd5b6001546040519081526020015b60405180910390f35b620000ac620000a636600462000569565b6200010c565b604051600160a060020a0390911681526020016200008c565b620000ac620000d636600462000433565b62000137565b620000f3620000ed366004620004d7565b62000169565b005b620000f36200010636600462000474565b620002cb565b600181815481106200011d57600080fd5b600091825260209091200154600160a060020a0316905081565b600080826040516200014a9190620005b1565b90815260405190819003602001902054600160a060020a031692915050565b826000600160a060020a0316600082604051620001879190620005b1565b90815260405190819003602001902054600160a060020a031614620001e3576040517f08c379a0000000000000000000000000000000000000000000000000000000008152600401620001da9062000656565b60405180910390fd5b600084848433604051620001f79062000390565b620002069493929190620005fc565b604051809103906000f08015801562000223573d6000803e3d6000fd5b506001805480820182556000919091527fb10e2d527612073b26eecdfd717e6a320cf44b4afac2b0732d9fcbe2b7fa0cf601805473ffffffffffffffffffffffffffffffffffffffff1916600160a060020a0383161790559050620002898582620002cb565b7fd21c40e43d25ed3f72ce8f084e686b75c829a30e3909f00a0be51c88405f2ef28582604051620002bc929190620005cf565b60405180910390a15050505050565b816000600160a060020a0316600082604051620002e99190620005b1565b90815260405190819003602001902054600160a060020a0316146200033c576040517f08c379a0000000000000000000000000000000000000000000000000000000008152600401620001da9062000656565b816000846040516200034f9190620005b1565b9081526040519081900360200190208054600160a060020a039290921673ffffffffffffffffffffffffffffffffffffffff19909216919091179055505050565b613da7806200071683390190565b600082601f830112620003b057600080fd5b813567ffffffffffffffff80821115620003ce57620003ce620006e6565b604051601f8301601f19908116603f01168101908282118183101715620003f957620003f9620006e6565b816040528381528660208588010111156200041357600080fd5b836020870160208301376000602085830101528094505050505092915050565b6000602082840312156200044657600080fd5b813567ffffffffffffffff8111156200045e57600080fd5b6200046c848285016200039e565b949350505050565b600080604083850312156200048857600080fd5b823567ffffffffffffffff811115620004a057600080fd5b620004ae858286016200039e565b9250506020830135600160a060020a0381168114620004cc57600080fd5b809150509250929050565b600080600060608486031215620004ed57600080fd5b833567ffffffffffffffff808211156200050657600080fd5b62000514878388016200039e565b945060208601359150808211156200052b57600080fd5b62000539878388016200039e565b935060408601359150808211156200055057600080fd5b506200055f868287016200039e565b9150509250925092565b6000602082840312156200057c57600080fd5b5035919050565b600081518084526200059d816020860160208601620006b3565b601f01601f19169290920160200192915050565b60008251620005c5818460208701620006b3565b9190910192915050565b604081526000620005e4604083018562000583565b9050600160a060020a03831660208301529392505050565b60808152600062000611608083018762000583565b828103602084015262000625818762000583565b905082810360408401526200063b818662000583565b915050600160a060020a038316606083015295945050505050565b6020808252602b908201527f546865726520697320616c7265616479206578697374656420636f6e7472616360408201527f742077697468206e616d65000000000000000000000000000000000000000000606082015260800190565b60005b83811015620006d0578181015183820152602001620006b6565b83811115620006e0576000848401525b50505050565b7f4e487b7100000000000000000000000000000000000000000000000000000000600052604160045260246000fdfe60a06040819052600060808190526200001b916007916200033b565b503480156200002957600080fd5b5060405162003da738038062003da78339810160408190526200004c9162000498565b81818162000063816401000000006200014f810204565b5060058054600160a860020a031916610100600160a060020a038416021790556200009960008264010000000062000168810204565b620000ce7f9f2df0fed2c77648de5860a4cc508cd0818c85b8b8a1ab4ceeef8d981c8956a68264010000000062000168810204565b620001037f65d7a28e3265b37a6474929f336521b332c1681b933f6cb9f3376673440d862a8264010000000062000168810204565b505083516200011a90600a9060208701906200033b565b5082516200013090600b9060208601906200033b565b5062000145826401000000006200017d810204565b50505050620005d0565b8051620001649060049060208401906200033b565b5050565b62000164828264010000000062000192810204565b8051620001649060079060208401906200033b565b620001ac828264010000000062000c92620001d982021704565b6000828152600160205260409020620001d4908264010000000062000d166200027582021704565b505050565b620001ee82826401000000006200029e810204565b6200016457600082815260208181526040808320600160a060020a03851684529091529020805460ff1916600117905562000231640100000000620002c7810204565b600160a060020a031681600160a060020a0316837f2f8788117e7eff1d82e926ec794901d17c78024a50270940304540a733656f0d60405160405180910390a45050565b60006200029583600160a060020a038416640100000000620002cb810204565b90505b92915050565b600091825260208281526040808420600160a060020a0393909316845291905290205460ff1690565b3390565b6000620002e2838364010000000062000323810204565b6200031a5750815460018181018455600084815260208082209093018490558454848252828601909352604090209190915562000298565b50600062000298565b60009081526001919091016020526040902054151590565b82805462000349906200054b565b90600052602060002090601f0160209004810192826200036d5760008555620003b8565b82601f106200038857805160ff1916838001178555620003b8565b82800160010185558215620003b8579182015b82811115620003b85782518255916020019190600101906200039b565b50620003c6929150620003ca565b5090565b5b80821115620003c65760008155600101620003cb565b600082601f830112620003f357600080fd5b81516001604060020a0380821115620004105762000410620005a1565b604051601f8301601f19908116603f011681019082821181831017156200043b576200043b620005a1565b816040528381526020925086838588010111156200045857600080fd5b600091505b838210156200047c57858201830151818301840152908201906200045d565b838211156200048e5760008385830101525b9695505050505050565b60008060008060808587031215620004af57600080fd5b84516001604060020a0380821115620004c757600080fd5b620004d588838901620003e1565b95506020870151915080821115620004ec57600080fd5b620004fa88838901620003e1565b945060408701519150808211156200051157600080fd5b506200052087828801620003e1565b60608701519093509050600160a060020a03811681146200054057600080fd5b939692955090935050565b6002810460018216806200056057607f821691505b602082108114156200059b577f4e487b7100000000000000000000000000000000000000000000000000000000600052602260045260246000fd5b50919050565b7f4e487b7100000000000000000000000000000000000000000000000000000000600052604160045260246000fd5b6137c780620005e06000396000f3fe608060405234801561001057600080fd5b50600436106101f6576000357c010000000000000000000000000000000000000000000000000000000090048063731133e911610121578063bd85b039116100bf578063e63ab1e91161008e578063e63ab1e914610441578063e985e9c514610468578063f242432a146104a4578063f5298aca146104b757600080fd5b8063bd85b039146103d4578063ca15c873146103f4578063d539139314610407578063d547741f1461042e57600080fd5b806391d14854116100fb57806391d148541461039e57806395d89b41146103b1578063a217fddf146103b9578063a22cb465146103c157600080fd5b8063731133e9146103585780638456cb591461036b5780639010d07c1461037357600080fd5b80632f2ff15d116101995780634e1273f4116101685780634e1273f4146103055780634f558e79146103185780635c975abb1461033a5780636b20c4541461034557600080fd5b80632f2ff15d146102b757806336568abe146102ca5780633f4ba83a146102dd5780634d11e81c146102e557600080fd5b80630e89341c116101d55780630e89341c146102595780631f7fdffa1461026c578063248a9ca3146102815780632eb2c2d6146102a457600080fd5b8062fdd58e146101fb57806301ffc9a71461022157806306fdde0314610244575b600080fd5b61020e610209366004612d05565b6104ca565b6040519081526020015b60405180910390f35b61023461022f366004612ee4565b61057b565b6040519015158152602001610218565b61024c610586565b60405161021891906131c1565b61024c610267366004612e86565b610618565b61027f61027a366004612c30565b610623565b005b61020e61028f366004612e86565b60009081526020819052604090206001015490565b61027f6102b2366004612aad565b610690565b61027f6102c5366004612e9f565b6106df565b61027f6102d8366004612e9f565b610709565b61027f610798565b6102f86102f3366004612a5f565b610853565b6040516102189190613189565b6102f8610313366004612db7565b6108bf565b610234610326366004612e86565b600090815260066020526040902054151590565b60055460ff16610234565b61027f610353366004612bbc565b610a00565b61027f610366366004612d62565b610a46565b61027f610aad565b610386610381366004612ec2565b610b66565b604051600160a060020a039091168152602001610218565b6102346103ac366004612e9f565b610b85565b61024c610bae565b61020e600081565b61027f6103cf366004612cc9565b610bbd565b61020e6103e2366004612e86565b60009081526006602052604090205490565b61020e610402366004612e86565b610bc8565b61020e7f9f2df0fed2c77648de5860a4cc508cd0818c85b8b8a1ab4ceeef8d981c8956a681565b61027f61043c366004612e9f565b610bdf565b61020e7f65d7a28e3265b37a6474929f336521b332c1681b933f6cb9f3376673440d862a81565b610234610476366004612a7a565b600160a060020a03918216600090815260036020908152604080832093909416825291909152205460ff1690565b61027f6104b2366004612b57565b610c04565b61027f6104c5366004612d2f565b610c4c565b6000600160a060020a0383166105505760405160e560020a62461bcd02815260206004820152602a60248201527f455243313135353a2061646472657373207a65726f206973206e6f742061207660448201527f616c6964206f776e65720000000000000000000000000000000000000000000060648201526084015b60405180910390fd5b506000818152600260209081526040808320600160a060020a03861684529091529020545b92915050565b600061057582610d2b565b6060600a8054610595906135ce565b80601f01602080910402602001604051908101604052809291908181526020018280546105c1906135ce565b801561060e5780601f106105e35761010080835404028352916020019161060e565b820191906000526020600020905b8154815290600101906020018083116105f157829003601f168201915b5050505050905090565b606061057582610d36565b60055461065f907f9f2df0fed2c77648de5860a4cc508cd0818c85b8b8a1ab4ceeef8d981c8956a6906101009004600160a060020a0316610b85565b61067e5760405160e560020a62461bcd028152600401610547906133a5565b61068a84848484610d41565b50505050565b600160a060020a0385163314806106ac57506106ac8533610476565b6106cb5760405160e560020a62461bcd028152600401610547906131d4565b6106d88585858585610eb1565b5050505050565b6000828152602081905260409020600101546106fa81611075565b6107048383611082565b505050565b600160a060020a038116331461078a5760405160e560020a62461bcd02815260206004820152602f60248201527f416363657373436f6e74726f6c3a2063616e206f6e6c792072656e6f756e636560448201527f20726f6c657320666f722073656c6600000000000000000000000000000000006064820152608401610547565b61079482826110a4565b5050565b6005546107d4907f65d7a28e3265b37a6474929f336521b332c1681b933f6cb9f3376673440d862a906101009004600160a060020a0316610b85565b6108495760405160e560020a62461bcd02815260206004820152603b60248201527f455243313135355072657365744d696e7465725061757365723a206d7573742060448201527f686176652070617573657220726f6c6520746f20756e706175736500000000006064820152608401610547565b6108516110c6565b565b600160a060020a0381166000908152600960209081526040918290208054835181840281018401909452808452606093928301828280156108b357602002820191906000526020600020905b81548152602001906001019080831161089f575b50505050509050919050565b6060815183511461093b5760405160e560020a62461bcd02815260206004820152602960248201527f455243313135353a206163636f756e747320616e6420696473206c656e67746860448201527f206d69736d6174636800000000000000000000000000000000000000000000006064820152608401610547565b6000835167ffffffffffffffff8111156109575761095761369f565b604051908082528060200260200182016040528015610980578160200160208202803683370190505b50905060005b84518110156109f8576109cb8582815181106109a4576109a4613686565b60200260200101518583815181106109be576109be613686565b60200260200101516104ca565b8282815181106109dd576109dd613686565b60209081029190910101526109f181613639565b9050610986565b509392505050565b600160a060020a038316331480610a1c5750610a1c8333610476565b610a3b5760405160e560020a62461bcd028152600401610547906131d4565b610704838383611118565b600554610a82907f9f2df0fed2c77648de5860a4cc508cd0818c85b8b8a1ab4ceeef8d981c8956a6906101009004600160a060020a0316610b85565b610aa15760405160e560020a62461bcd028152600401610547906133a5565b61068a848484846112ca565b600554610ae9907f65d7a28e3265b37a6474929f336521b332c1681b933f6cb9f3376673440d862a906101009004600160a060020a0316610b85565b610b5e5760405160e560020a62461bcd02815260206004820152603960248201527f455243313135355072657365744d696e7465725061757365723a206d7573742060448201527f686176652070617573657220726f6c6520746f207061757365000000000000006064820152608401610547565b6108516113c7565b6000828152600160205260408120610b7e9083611404565b9392505050565b600091825260208281526040808420600160a060020a0393909316845291905290205460ff1690565b6060600b8054610595906135ce565b610794338383611410565b600081815260016020526040812061057590611508565b600082815260208190526040902060010154610bfa81611075565b61070483836110a4565b600160a060020a038516331480610c205750610c208533610476565b610c3f5760405160e560020a62461bcd028152600401610547906131d4565b6106d88585858585611512565b600160a060020a038316331480610c685750610c688333610476565b610c875760405160e560020a62461bcd028152600401610547906131d4565b610704838383611662565b610c9c8282610b85565b61079457600082815260208181526040808320600160a060020a03851684529091529020805460ff19166001179055610cd23390565b600160a060020a031681600160a060020a0316837f2f8788117e7eff1d82e926ec794901d17c78024a50270940304540a733656f0d60405160405180910390a45050565b6000610b7e83600160a060020a03841661178e565b6000610575826117dd565b60606105758261184f565b600160a060020a038416610d6a5760405160e560020a62461bcd028152600401610547906134bc565b8151835114610d8e5760405160e560020a62461bcd0281526004016105479061345f565b33610d9e8160008787878761192e565b60005b8451811015610e3a57838181518110610dbc57610dbc613686565b602002602001015160026000878481518110610dda57610dda613686565b60200260200101518152602001908152602001600020600088600160a060020a0316600160a060020a031681526020019081526020016000206000828254610e22919061353d565b90915550819050610e3281613639565b915050610da1565b5084600160a060020a03166000600160a060020a031682600160a060020a03167f4a39dc06d4c0dbc64b70af90fd698a233a518aa5d07e595d983b8c0526c8f7fb8787604051610e8b92919061319c565b60405180910390a4610ea28160008787878761193c565b6106d88160008787878761194a565b8151835114610ed55760405160e560020a62461bcd0281526004016105479061345f565b600160a060020a038416610efe5760405160e560020a62461bcd028152600401610547906132eb565b33610f0d81878787878761192e565b60005b8451811015610ff9576000858281518110610f2d57610f2d613686565b602002602001015190506000858381518110610f4b57610f4b613686565b6020908102919091018101516000848152600283526040808220600160a060020a038e168352909352919091205490915081811015610f9f5760405160e560020a62461bcd02815260040161054790613402565b6000838152600260209081526040808320600160a060020a038e8116855292528083208585039055908b16825281208054849290610fde90849061353d565b9250508190555050505080610ff290613639565b9050610f10565b5084600160a060020a031686600160a060020a031682600160a060020a03167f4a39dc06d4c0dbc64b70af90fd698a233a518aa5d07e595d983b8c0526c8f7fb878760405161104992919061319c565b60405180910390a461105f81878787878761193c565b61106d81878787878761194a565b505050505050565b61107f8133611af9565b50565b61108c8282610c92565b60008281526001602052604090206107049082610d16565b6110ae8282611b60565b60008281526001602052604090206107049082611bc5565b6110ce611bda565b6005805460ff191690557f5db9ee0a495bf2e6ff9c91a7834c1ba4fdd244a5e8aa4e537bd38aeae4b073aa335b604051600160a060020a03909116815260200160405180910390a1565b600160a060020a0383166111415760405160e560020a62461bcd02815260040161054790613348565b80518251146111655760405160e560020a62461bcd0281526004016105479061345f565b60003390506111888185600086866040518060200160405280600081525061192e565b60005b83518110156112535760008482815181106111a8576111a8613686565b6020026020010151905060008483815181106111c6576111c6613686565b6020908102919091018101516000848152600283526040808220600160a060020a038c16835290935291909120549091508181101561121a5760405160e560020a62461bcd0281526004016105479061328e565b6000928352600260209081526040808520600160a060020a038b168652909152909220910390558061124b81613639565b91505061118b565b506000600160a060020a031684600160a060020a031682600160a060020a03167f4a39dc06d4c0dbc64b70af90fd698a233a518aa5d07e595d983b8c0526c8f7fb86866040516112a492919061319c565b60405180910390a461068a8185600086866040518060200160405280600081525061193c565b600160a060020a0384166112f35760405160e560020a62461bcd028152600401610547906134bc565b3360006112ff85611c2f565b9050600061130c85611c2f565b905061131d8360008985858961192e565b6000868152600260209081526040808320600160a060020a038b1684529091528120805487929061134f90849061353d565b90915550506040805187815260208101879052600160a060020a03808a1692600092918716917fc3d58168c5ae7397731d063d5bbf3d657854427343f4c083240f7aacaa2d0f62910160405180910390a46113af8360008985858961193c565b6113be83600089898989611c7a565b50505050505050565b6113cf611d79565b6005805460ff191660011790557f62e78cea01bee320cd4e420270b5ea74000d11b0c9f74754ebdbfc544b05a2586110fb3390565b6000610b7e8383611dcf565b81600160a060020a031683600160a060020a0316141561149b5760405160e560020a62461bcd02815260206004820152602960248201527f455243313135353a2073657474696e6720617070726f76616c2073746174757360448201527f20666f722073656c6600000000000000000000000000000000000000000000006064820152608401610547565b600160a060020a03838116600081815260036020908152604080832094871680845294825291829020805460ff191686151590811790915591519182527f17307eab39ab6107e8899845ad3d59bd9653f200f220920489ca2b5937696c31910160405180910390a3505050565b6000610575825490565b600160a060020a03841661153b5760405160e560020a62461bcd028152600401610547906132eb565b33600061154785611c2f565b9050600061155485611c2f565b905061156483898985858961192e565b6000868152600260209081526040808320600160a060020a038c168452909152902054858110156115aa5760405160e560020a62461bcd02815260040161054790613402565b6000878152600260209081526040808320600160a060020a038d8116855292528083208985039055908a168252812080548892906115e990849061353d565b90915550506040805188815260208101889052600160a060020a03808b16928c821692918816917fc3d58168c5ae7397731d063d5bbf3d657854427343f4c083240f7aacaa2d0f62910160405180910390a4611649848a8a86868a61193c565b611657848a8a8a8a8a611c7a565b505050505050505050565b600160a060020a03831661168b5760405160e560020a62461bcd02815260040161054790613348565b33600061169784611c2f565b905060006116a484611c2f565b90506116c48387600085856040518060200160405280600081525061192e565b6000858152600260209081526040808320600160a060020a038a1684529091529020548481101561170a5760405160e560020a62461bcd0281526004016105479061328e565b6000868152600260209081526040808320600160a060020a038b81168086529184528285208a8703905582518b81529384018a90529092908816917fc3d58168c5ae7397731d063d5bbf3d657854427343f4c083240f7aacaa2d0f62910160405180910390a46113be8488600086866040518060200160405280600081525061193c565b60008181526001830160205260408120546117d557508154600181810184556000848152602080822090930184905584548482528286019093526040902091909155610575565b506000610575565b6000600160e060020a031982167fd9b67a260000000000000000000000000000000000000000000000000000000014806118405750600160e060020a031982167f0e89341c00000000000000000000000000000000000000000000000000000000145b80610575575061057582611df9565b60008181526008602052604081208054606092919061186d906135ce565b80601f0160208091040260200160405190810160405280929190818152602001828054611899906135ce565b80156118e65780601f106118bb576101008083540402835291602001916118e6565b820191906000526020600020905b8154815290600101906020018083116118c957829003601f168201915b505050505090506000815111611904576118ff83611e37565b610b7e565b600781604051602001611918929190612fbd565b6040516020818303038152906040529392505050565b61106d868686868686611ec1565b61106d868686868686611ecf565b600160a060020a0384163b1561106d576040517fbc197c81000000000000000000000000000000000000000000000000000000008152600160a060020a0385169063bc197c81906119a790899089908890889088906004016130e8565b602060405180830381600087803b1580156119c157600080fd5b505af19250505080156119f1575060408051601f3d908101601f191682019092526119ee91810190612f01565b60015b611aad576119fd6136b8565b806308c379a01415611a3a5750611a126136f1565b80611a1d5750611a3c565b8060405160e560020a62461bcd02815260040161054791906131c1565b505b60405160e560020a62461bcd02815260206004820152603460248201527f455243313135353a207472616e7366657220746f206e6f6e204552433131353560448201527f526563656976657220696d706c656d656e7465720000000000000000000000006064820152608401610547565b600160e060020a031981167fbc197c8100000000000000000000000000000000000000000000000000000000146113be5760405160e560020a62461bcd02815260040161054790613231565b611b038282610b85565b61079457611b1b81600160a060020a031660146121ab565b611b268360206121ab565b604051602001611b37929190613067565b60408051601f198184030181529082905260e560020a62461bcd028252610547916004016131c1565b611b6a8282610b85565b1561079457600082815260208181526040808320600160a060020a0385168085529252808320805460ff1916905551339285917ff6391f5c32d9c69d2a47ea670b442974b53935d1edc7fd64eb21e047a839171b9190a45050565b6000610b7e83600160a060020a0384166123f5565b60055460ff166108515760405160e560020a62461bcd02815260206004820152601460248201527f5061757361626c653a206e6f74207061757365640000000000000000000000006044820152606401610547565b60408051600180825281830190925260609160009190602080830190803683370190505090508281600081518110611c6957611c69613686565b602090810291909101015292915050565b600160a060020a0384163b1561106d576040517ff23a6e61000000000000000000000000000000000000000000000000000000008152600160a060020a0385169063f23a6e6190611cd79089908990889088908890600401613146565b602060405180830381600087803b158015611cf157600080fd5b505af1925050508015611d21575060408051601f3d908101601f19168201909252611d1e91810190612f01565b60015b611d2d576119fd6136b8565b600160e060020a031981167ff23a6e6100000000000000000000000000000000000000000000000000000000146113be5760405160e560020a62461bcd02815260040161054790613231565b60055460ff16156108515760405160e560020a62461bcd02815260206004820152601060248201527f5061757361626c653a20706175736564000000000000000000000000000000006044820152606401610547565b6000826000018281548110611de657611de6613686565b9060005260206000200154905092915050565b6000600160e060020a031982167f5a05180f0000000000000000000000000000000000000000000000000000000014806105755750610575826124e8565b606060048054611e46906135ce565b80601f0160208091040260200160405190810160405280929190818152602001828054611e72906135ce565b80156108b35780601f10611e94576101008083540402835291602001916108b3565b820191906000526020600020905b815481529060010190602001808311611ea25750939695505050505050565b61106d86868686868661254f565b600160a060020a038516611f3d5760005b8351811015611f3b57611f2b848281518110611efe57611efe613686565b602002602001015183604051602001611f179190612fa1565b6040516020818303038152906040526126ee565b611f3481613639565b9050611ee0565b505b600160a060020a038516156120345760005b83518110156120325760005b600160a060020a03871660009081526009602052604090205481101561201f57600160a060020a0387166000908152600960205260409020805482908110611fa557611fa5613686565b9060005260206000200154858381518110611fc257611fc2613686565b6020026020010151141561200d57611fe6878684815181106109be576109be613686565b61200d5761200d8786848151811061200057612000613686565b6020026020010151612752565b8061201781613639565b915050611f5b565b508061202a81613639565b915050611f4f565b505b600160a060020a038416156121a65760005b83518110156121a4576000805b600160a060020a03871660009081526009602052604090205481101561213f57600160a060020a038716600090815260096020526040902080548290811061209d5761209d613686565b90600052602060002001548684815181106120ba576120ba613686565b6020026020010151141561212d578583815181106120da576120da613686565b60200260200101516009600089600160a060020a0316600160a060020a03168152602001908152602001600020828154811061211857612118613686565b6000918252602090912001556001915061213f565b8061213781613639565b915050612053565b508061219157600160a060020a0386166000908152600960205260409020855186908490811061217157612171613686565b602090810291909101810151825460018101845560009384529190922001555b508061219c81613639565b915050612046565b505b61106d565b606060006121ba836002613555565b6121c590600261353d565b67ffffffffffffffff8111156121dd576121dd61369f565b6040519080825280601f01601f191660200182016040528015612207576020820181803683370190505b5090507f30000000000000000000000000000000000000000000000000000000000000008160008151811061223e5761223e613686565b60200101907effffffffffffffffffffffffffffffffffffffffffffffffffffffffffffff1916908160001a9053507f7800000000000000000000000000000000000000000000000000000000000000816001815181106122a1576122a1613686565b60200101907effffffffffffffffffffffffffffffffffffffffffffffffffffffffffffff1916908160001a90535060006122dd846002613555565b6122e890600161353d565b90505b60018111156123a3577f303132333435363738396162636465660000000000000000000000000000000085600f166010811061232957612329613686565b1a7f01000000000000000000000000000000000000000000000000000000000000000282828151811061235e5761235e613686565b60200101907effffffffffffffffffffffffffffffffffffffffffffffffffffffffffffff1916908160001a90535060109094049361239c816135b7565b90506122eb565b508315610b7e5760405160e560020a62461bcd02815260206004820181905260248201527f537472696e67733a20686578206c656e67746820696e73756666696369656e746044820152606401610547565b600081815260018301602052604081205480156124de576000612419600183613574565b855490915060009061242d90600190613574565b905081811461249257600086600001828154811061244d5761244d613686565b906000526020600020015490508087600001848154811061247057612470613686565b6000918252602080832090910192909255918252600188019052604090208390555b85548690806124a3576124a361366d565b600190038181906000526020600020016000905590558560010160008681526020019081526020016000206000905560019350505050610575565b6000915050610575565b6000600160e060020a031982167f7965db0b00000000000000000000000000000000000000000000000000000000148061057557507f01ffc9a700000000000000000000000000000000000000000000000000000000600160e060020a0319831614610575565b61255d86868686868661283c565b600160a060020a0385166125e45760005b83518110156125e25782818151811061258957612589613686565b6020026020010151600660008684815181106125a7576125a7613686565b6020026020010151815260200190815260200160002060008282546125cc919061353d565b909155506125db905081613639565b905061256e565b505b600160a060020a03841661106d5760005b83518110156113be57600084828151811061261257612612613686565b60200260200101519050600084838151811061263057612630613686565b60200260200101519050600060066000848152602001908152602001600020549050818110156126cb5760405160e560020a62461bcd02815260206004820152602860248201527f455243313135353a206275726e20616d6f756e74206578636565647320746f7460448201527f616c537570706c790000000000000000000000000000000000000000000000006064820152608401610547565b600092835260066020526040909220910390556126e781613639565b90506125f5565b6000828152600860209081526040909120825161270d928401906128c1565b50817f6bb7ff708619ba0610cba295a58592e0451dee2622938c8755667688daf3529b61273984610618565b60405161274691906131c1565b60405180910390a25050565b600160a060020a038216600090815260096020526040902054811061277657600080fd5b600160a060020a0382166000908152600960205260409020805461279c90600190613574565b815481106127ac576127ac613686565b90600052602060002001546009600084600160a060020a0316600160a060020a0316815260200190815260200160002082815481106127ed576127ed613686565b6000918252602080832090910192909255600160a060020a03841681526009909152604090208054806128225761282261366d565b600190038181906000526020600020016000905590555050565b61106d86868686868660055460ff161561106d5760405160e560020a62461bcd02815260206004820152602c60248201527f455243313135355061757361626c653a20746f6b656e207472616e736665722060448201527f7768696c652070617573656400000000000000000000000000000000000000006064820152608401610547565b8280546128cd906135ce565b90600052602060002090601f0160209004810192826128ef5760008555612935565b82601f1061290857805160ff1916838001178555612935565b82800160010185558215612935579182015b8281111561293557825182559160200191906001019061291a565b50612941929150612945565b5090565b5b808211156129415760008155600101612946565b8035600160a060020a038116811461297157600080fd5b919050565b600082601f83011261298757600080fd5b8135602061299482613519565b6040516129a1828261360c565b8381528281019150858301838502870184018810156129bf57600080fd5b60005b858110156129de578135845292840192908401906001016129c2565b5090979650505050505050565b600082601f8301126129fc57600080fd5b813567ffffffffffffffff811115612a1657612a1661369f565b604051612a2d601f8301601f19166020018261360c565b818152846020838601011115612a4257600080fd5b816020850160208301376000918101602001919091529392505050565b600060208284031215612a7157600080fd5b610b7e8261295a565b60008060408385031215612a8d57600080fd5b612a968361295a565b9150612aa46020840161295a565b90509250929050565b600080600080600060a08688031215612ac557600080fd5b612ace8661295a565b9450612adc6020870161295a565b9350604086013567ffffffffffffffff80821115612af957600080fd5b612b0589838a01612976565b94506060880135915080821115612b1b57600080fd5b612b2789838a01612976565b93506080880135915080821115612b3d57600080fd5b50612b4a888289016129eb565b9150509295509295909350565b600080600080600060a08688031215612b6f57600080fd5b612b788661295a565b9450612b866020870161295a565b93506040860135925060608601359150608086013567ffffffffffffffff811115612bb057600080fd5b612b4a888289016129eb565b600080600060608486031215612bd157600080fd5b612bda8461295a565b9250602084013567ffffffffffffffff80821115612bf757600080fd5b612c0387838801612976565b93506040860135915080821115612c1957600080fd5b50612c2686828701612976565b9150509250925092565b60008060008060808587031215612c4657600080fd5b612c4f8561295a565b9350602085013567ffffffffffffffff80821115612c6c57600080fd5b612c7888838901612976565b94506040870135915080821115612c8e57600080fd5b612c9a88838901612976565b93506060870135915080821115612cb057600080fd5b50612cbd878288016129eb565b91505092959194509250565b60008060408385031215612cdc57600080fd5b612ce58361295a565b915060208301358015158114612cfa57600080fd5b809150509250929050565b60008060408385031215612d1857600080fd5b612d218361295a565b946020939093013593505050565b600080600060608486031215612d4457600080fd5b612d4d8461295a565b95602085013595506040909401359392505050565b60008060008060808587031215612d7857600080fd5b612d818561295a565b93506020850135925060408501359150606085013567ffffffffffffffff811115612dab57600080fd5b612cbd878288016129eb565b60008060408385031215612dca57600080fd5b823567ffffffffffffffff80821115612de257600080fd5b818501915085601f830112612df657600080fd5b81356020612e0382613519565b604051612e10828261360c565b8381528281019150858301838502870184018b1015612e2e57600080fd5b600096505b84871015612e5857612e448161295a565b835260019690960195918301918301612e33565b5096505086013592505080821115612e6f57600080fd5b50612e7c85828601612976565b9150509250929050565b600060208284031215612e9857600080fd5b5035919050565b60008060408385031215612eb257600080fd5b82359150612aa46020840161295a565b60008060408385031215612ed557600080fd5b50508035926020909101359150565b600060208284031215612ef657600080fd5b8135610b7e8161377b565b600060208284031215612f1357600080fd5b8151610b7e8161377b565b600081518084526020808501945080840160005b83811015612f4e57815187529582019590820190600101612f32565b509495945050505050565b60008151808452612f7181602086016020860161358b565b601f01601f19169290920160200192915050565b60008151612f9781856020860161358b565b9290920192915050565b60008251612fb381846020870161358b565b9190910192915050565b8254600090819060028104600180831680612fd957607f831692505b6020808410821415612ffc5760e060020a634e487b710286526022600452602486fd5b81801561301057600181146130215761304e565b60ff1986168952848901965061304e565b60008b81526020902060005b868110156130465781548b82015290850190830161302d565b505084890196505b50505050505061305e8185612f85565b95945050505050565b7f416363657373436f6e74726f6c3a206163636f756e742000000000000000000081526000835161309f81601785016020880161358b565b7f206973206d697373696e6720726f6c652000000000000000000000000000000060179184019182015283516130dc81602884016020880161358b565b01602801949350505050565b6000600160a060020a03808816835280871660208401525060a0604083015261311460a0830186612f1e565b82810360608401526131268186612f1e565b9050828103608084015261313a8185612f59565b98975050505050505050565b6000600160a060020a03808816835280871660208401525084604083015283606083015260a0608083015261317e60a0830184612f59565b979650505050505050565b602081526000610b7e6020830184612f1e565b6040815260006131af6040830185612f1e565b828103602084015261305e8185612f1e565b602081526000610b7e6020830184612f59565b6020808252602f908201527f455243313135353a2063616c6c6572206973206e6f7420746f6b656e206f776e60408201527f6572206e6f7220617070726f7665640000000000000000000000000000000000606082015260800190565b60208082526028908201527f455243313135353a204552433131353552656365697665722072656a6563746560408201527f6420746f6b656e73000000000000000000000000000000000000000000000000606082015260800190565b60208082526024908201527f455243313135353a206275726e20616d6f756e7420657863656564732062616c60408201527f616e636500000000000000000000000000000000000000000000000000000000606082015260800190565b60208082526025908201527f455243313135353a207472616e7366657220746f20746865207a65726f20616460408201527f6472657373000000000000000000000000000000000000000000000000000000606082015260800190565b60208082526023908201527f455243313135353a206275726e2066726f6d20746865207a65726f206164647260408201527f6573730000000000000000000000000000000000000000000000000000000000606082015260800190565b60208082526038908201527f455243313135355072657365744d696e7465725061757365723a206d7573742060408201527f68617665206d696e74657220726f6c6520746f206d696e740000000000000000606082015260800190565b6020808252602a908201527f455243313135353a20696e73756666696369656e742062616c616e636520666f60408201527f72207472616e7366657200000000000000000000000000000000000000000000606082015260800190565b60208082526028908201527f455243313135353a2069647320616e6420616d6f756e7473206c656e6774682060408201527f6d69736d61746368000000000000000000000000000000000000000000000000606082015260800190565b60208082526021908201527f455243313135353a206d696e7420746f20746865207a65726f2061646472657360408201527f7300000000000000000000000000000000000000000000000000000000000000606082015260800190565b600067ffffffffffffffff8211156135335761353361369f565b5060209081020190565b6000821982111561355057613550613654565b500190565b600081600019048311821515161561356f5761356f613654565b500290565b60008282101561358657613586613654565b500390565b60005b838110156135a657818101518382015260200161358e565b8381111561068a5750506000910152565b6000816135c6576135c6613654565b506000190190565b6002810460018216806135e257607f821691505b602082108114156136065760e060020a634e487b7102600052602260045260246000fd5b50919050565b601f8201601f1916810167ffffffffffffffff811182821017156136325761363261369f565b6040525050565b600060001982141561364d5761364d613654565b5060010190565b60e060020a634e487b7102600052601160045260246000fd5b60e060020a634e487b7102600052603160045260246000fd5b60e060020a634e487b7102600052603260045260246000fd5b60e060020a634e487b7102600052604160045260246000fd5b600060033d11156136ee5760046000803e7c01000000000000000000000000000000000000000000000000000000006000510490505b90565b600060443d10156136ff5790565b6040516003193d81016004833e81513d67ffffffffffffffff816024840111818411171561372f57505050505090565b82850191508151818111156137475750505050505090565b843d87010160208285010111156137615750505050505090565b6137706020828601018761360c565b509095945050505050565b600160e060020a03198116811461107f57600080fdfea26469706673582212203835830295c32484ec8707c7ce9f9fb9ad9690c44ec155009e58fdc2666a7f6c64736f6c63430008060033a2646970667358221220e836e21109ec04f69860eeeb25adefc1bf64fed5341b05e0290187d7955a4b0b64736f6c63430008060033",
  "immutableReferences": {},
  "source": "// SPDX-License-Identifier: MIT\npragma solidity >=0.4.22 <0.9.0;\n\nimport \"./ERC1155Token.sol\";\nimport \"./ERC1155TokenEnumerable.sol\";\n\ncontract ERC1155TokenFactory is ERC1155TokenEnumerable {\n    event CreateNewERC1155Token(string name, address contractAddress);\n\n    ERC1155Token[] public ERC1155TokenArray;\n\n    constructor() {}\n\n    function createNewERC1155Token(string memory name, string memory symbol, string memory baseURI) public onlyEmptyName(name) {\n        ERC1155Token erc1155Token = new ERC1155Token(name, symbol, baseURI, msg.sender);\n        ERC1155TokenArray.push(erc1155Token);\n\n        setContractAddressByName(name, address(erc1155Token));\n\n        emit CreateNewERC1155Token(name, address(erc1155Token));\n    }\n\n    function totalDeployedContract() public view returns(uint256) {\n        return ERC1155TokenArray.length;\n    }\n}\n",
  "sourcePath": "/Users/jangseongho/Desktop/Lycle/nft-marketplace/truffle/contracts/ERC1155TokenFactory.sol",
  "compiler": {
    "name": "solc",
    "version": "0.8.6+commit.11564f7e.Emscripten.clang"
  },
  "schemaVersion": "3.4.8",
  "updatedAt": "2022-11-09T12:25:41.647Z",
  "networkType": "ethereum",
  "devdoc": {
    "kind": "dev",
    "methods": {},
    "version": 1
  },
  "userdoc": {
    "kind": "user",
    "methods": {},
    "version": 1
  }
}