{
  "contractName": "ERC1155TokenEnumerable",
  "abi": [
    {
      "inputs": [],
      "stateMutability": "nonpayable",
      "type": "constructor"
    },
    {
      "inputs": [
        {
          "internalType": "string",
          "name": "name",
          "type": "string"
        },
        {
          "internalType": "address",
          "name": "contractAddress",
          "type": "address"
        }
      ],
      "name": "setContractAddressByName",
      "outputs": [],
      "stateMutability": "nonpayable",
      "type": "function"
    },
    {
      "inputs": [
        {
          "internalType": "string",
          "name": "name",
          "type": "string"
        }
      ],
      "name": "getContractAddressByName",
      "outputs": [
        {
          "internalType": "address",
          "name": "",
          "type": "address"
        }
      ],
      "stateMutability": "view",
      "type": "function"
    }
  ],
  "bytecode": "0x608060405234801561001057600080fd5b506103f9806100206000396000f3fe608060405234801561001057600080fd5b5060043610610052577c0100000000000000000000000000000000000000000000000000000000600035046382760fca8114610057578063e22a89e414610093575b600080fd5b61006a6100653660046102b1565b6100a8565b60405173ffffffffffffffffffffffffffffffffffffffff909116815260200160405180910390f35b6100a66100a13660046102ee565b6100e5565b005b600080826040516100b99190610359565b9081526040519081900360200190205473ffffffffffffffffffffffffffffffffffffffff1692915050565b81600073ffffffffffffffffffffffffffffffffffffffff1660008260405161010e9190610359565b9081526040519081900360200190205473ffffffffffffffffffffffffffffffffffffffff16146101c5576040517f08c379a000000000000000000000000000000000000000000000000000000000815260206004820152602b60248201527f546865726520697320616c7265616479206578697374656420636f6e7472616360448201527f742077697468206e616d65000000000000000000000000000000000000000000606482015260840160405180910390fd5b816000846040516101d69190610359565b908152604051908190036020019020805473ffffffffffffffffffffffffffffffffffffffff9290921673ffffffffffffffffffffffffffffffffffffffff19909216919091179055505050565b600082601f83011261023557600080fd5b813567ffffffffffffffff8082111561025057610250610394565b604051601f8301601f19908116603f0116810190828211818310171561027857610278610394565b8160405283815286602085880101111561029157600080fd5b836020870160208301376000602085830101528094505050505092915050565b6000602082840312156102c357600080fd5b813567ffffffffffffffff8111156102da57600080fd5b6102e684828501610224565b949350505050565b6000806040838503121561030157600080fd5b823567ffffffffffffffff81111561031857600080fd5b61032485828601610224565b925050602083013573ffffffffffffffffffffffffffffffffffffffff8116811461034e57600080fd5b809150509250929050565b6000825160005b8181101561037a5760208186018101518583015201610360565b81811115610389576000828501525b509190910192915050565b7f4e487b7100000000000000000000000000000000000000000000000000000000600052604160045260246000fdfea26469706673582212207458e463f34781c94a307f383dbf679fa876af2dfd0a40f0c5298fc2eed3352264736f6c63430008060033",
  "immutableReferences": {},
  "source": "// SPDX-License-Identifier: MIT\npragma solidity >=0.4.22 <0.9.0;\n\ncontract ERC1155TokenEnumerable {\n    mapping(string => address) private _contractAddresses;\n\n    constructor() {}\n    \n    modifier onlyEmptyName(string memory name) {\n        require(_contractAddresses[name] == address(0x0), \"There is already existed contract with name\");\n        _;\n    }\n\n    function setContractAddressByName(string memory name, address contractAddress) public onlyEmptyName(name) {\n        _contractAddresses[name] = contractAddress;\n    }\n\n    function getContractAddressByName(string memory name) public view returns(address) {\n        return _contractAddresses[name];\n    }\n}\n",
  "sourcePath": "/Users/jangseongho/Desktop/Lycle/nft-marketplace/truffle/contracts/ERC1155TokenEnumerable.sol",
  "compiler": {
    "name": "solc",
    "version": "0.8.6+commit.11564f7e.Emscripten.clang"
  },
  "schemaVersion": "3.4.8",
  "updatedAt": "2022-11-05T18:13:38.767Z",
  "devdoc": {
    "kind": "dev",
    "methods": {},
    "version": 1
  },
  "userdoc": {
    "kind": "user",
    "methods": {},
    "version": 1
  }
}