{
  "contractName": "ERC1155TokenFactory",
  "abi": [
    {
      "inputs": [],
      "stateMutability": "nonpayable",
      "type": "constructor"
    },
    {
      "anonymous": false,
      "inputs": [
        {
          "indexed": false,
          "internalType": "string",
          "name": "name",
          "type": "string"
        },
        {
          "indexed": false,
          "internalType": "address",
          "name": "contractAddress",
          "type": "address"
        }
      ],
      "name": "CreateNewERC1155Token",
      "type": "event"
    },
    {
      "inputs": [
        {
          "internalType": "uint256",
          "name": "",
          "type": "uint256"
        }
      ],
      "name": "ERC1155TokenArray",
      "outputs": [
        {
          "internalType": "contract ERC1155Token",
          "name": "",
          "type": "address"
        }
      ],
      "stateMutability": "view",
      "type": "function",
      "constant": true
    },
    {
      "inputs": [
        {
          "internalType": "string",
          "name": "name",
          "type": "string"
        }
      ],
      "name": "getContractAddressByName",
      "outputs": [
        {
          "internalType": "address",
          "name": "",
          "type": "address"
        }
      ],
      "stateMutability": "view",
      "type": "function",
      "constant": true
    },
    {
      "inputs": [
        {
          "internalType": "string",
          "name": "name",
          "type": "string"
        },
        {
          "internalType": "address",
          "name": "contractAddress",
          "type": "address"
        }
      ],
      "name": "setContractAddressByName",
      "outputs": [],
      "stateMutability": "nonpayable",
      "type": "function"
    },
    {
      "inputs": [
        {
          "internalType": "string",
          "name": "name",
          "type": "string"
        },
        {
          "internalType": "string",
          "name": "symbol",
          "type": "string"
        },
        {
          "internalType": "string",
          "name": "baseURI",
          "type": "string"
        }
      ],
      "name": "createNewERC1155Token",
      "outputs": [],
      "stateMutability": "nonpayable",
      "type": "function"
    },
    {
      "inputs": [],
      "name": "totalDeployedContract",
      "outputs": [
        {
          "internalType": "uint256",
          "name": "",
          "type": "uint256"
        }
      ],
      "stateMutability": "view",
      "type": "function",
      "constant": true
    }
  ],
  "bytecode": "0x608060405234801561001057600080fd5b50614236806100206000396000f3fe60806040523480156200001157600080fd5b50600436106200007a577c01000000000000000000000000000000000000000000000000000000006000350463115e184581146200007f5780637a765133146200009557806382760fca14620000c5578063b2a6ead414620000dc578063e22a89e414620000f5575b600080fd5b6001546040519081526020015b60405180910390f35b620000ac620000a636600462000569565b6200010c565b604051600160a060020a0390911681526020016200008c565b620000ac620000d636600462000433565b62000137565b620000f3620000ed366004620004d7565b62000169565b005b620000f36200010636600462000474565b620002cb565b600181815481106200011d57600080fd5b600091825260209091200154600160a060020a0316905081565b600080826040516200014a9190620005b1565b90815260405190819003602001902054600160a060020a031692915050565b826000600160a060020a0316600082604051620001879190620005b1565b90815260405190819003602001902054600160a060020a031614620001e3576040517f08c379a0000000000000000000000000000000000000000000000000000000008152600401620001da9062000656565b60405180910390fd5b600084848433604051620001f79062000390565b620002069493929190620005fc565b604051809103906000f08015801562000223573d6000803e3d6000fd5b506001805480820182556000919091527fb10e2d527612073b26eecdfd717e6a320cf44b4afac2b0732d9fcbe2b7fa0cf601805473ffffffffffffffffffffffffffffffffffffffff1916600160a060020a0383161790559050620002898582620002cb565b7fd21c40e43d25ed3f72ce8f084e686b75c829a30e3909f00a0be51c88405f2ef28582604051620002bc929190620005cf565b60405180910390a15050505050565b816000600160a060020a0316600082604051620002e99190620005b1565b90815260405190819003602001902054600160a060020a0316146200033c576040517f08c379a0000000000000000000000000000000000000000000000000000000008152600401620001da9062000656565b816000846040516200034f9190620005b1565b9081526040519081900360200190208054600160a060020a039290921673ffffffffffffffffffffffffffffffffffffffff19909216919091179055505050565b613aeb806200071683390190565b600082601f830112620003b057600080fd5b813567ffffffffffffffff80821115620003ce57620003ce620006e6565b604051601f8301601f19908116603f01168101908282118183101715620003f957620003f9620006e6565b816040528381528660208588010111156200041357600080fd5b836020870160208301376000602085830101528094505050505092915050565b6000602082840312156200044657600080fd5b813567ffffffffffffffff8111156200045e57600080fd5b6200046c848285016200039e565b949350505050565b600080604083850312156200048857600080fd5b823567ffffffffffffffff811115620004a057600080fd5b620004ae858286016200039e565b9250506020830135600160a060020a0381168114620004cc57600080fd5b809150509250929050565b600080600060608486031215620004ed57600080fd5b833567ffffffffffffffff808211156200050657600080fd5b62000514878388016200039e565b945060208601359150808211156200052b57600080fd5b62000539878388016200039e565b935060408601359150808211156200055057600080fd5b506200055f868287016200039e565b9150509250925092565b6000602082840312156200057c57600080fd5b5035919050565b600081518084526200059d816020860160208601620006b3565b601f01601f19169290920160200192915050565b60008251620005c5818460208701620006b3565b9190910192915050565b604081526000620005e4604083018562000583565b9050600160a060020a03831660208301529392505050565b60808152600062000611608083018762000583565b828103602084015262000625818762000583565b905082810360408401526200063b818662000583565b915050600160a060020a038316606083015295945050505050565b6020808252602b908201527f546865726520697320616c7265616479206578697374656420636f6e7472616360408201527f742077697468206e616d65000000000000000000000000000000000000000000606082015260800190565b60005b83811015620006d0578181015183820152602001620006b6565b83811115620006e0576000848401525b50505050565b7f4e487b7100000000000000000000000000000000000000000000000000000000600052604160045260246000fdfe60a06040819052600060808190526200001b916007916200033b565b503480156200002957600080fd5b5060405162003aeb38038062003aeb8339810160408190526200004c9162000498565b81818162000063816401000000006200014f810204565b5060058054600160a860020a031916610100600160a060020a038416021790556200009960008264010000000062000168810204565b620000ce7f9f2df0fed2c77648de5860a4cc508cd0818c85b8b8a1ab4ceeef8d981c8956a68264010000000062000168810204565b620001037f65d7a28e3265b37a6474929f336521b332c1681b933f6cb9f3376673440d862a8264010000000062000168810204565b505083516200011a9060099060208701906200033b565b5082516200013090600a9060208601906200033b565b5062000145826401000000006200017d810204565b50505050620005d0565b8051620001649060049060208401906200033b565b5050565b62000164828264010000000062000192810204565b8051620001649060079060208401906200033b565b620001ac828264010000000062000c08620001d982021704565b6000828152600160205260409020620001d4908264010000000062000c8c6200027582021704565b505050565b620001ee82826401000000006200029e810204565b6200016457600082815260208181526040808320600160a060020a03851684529091529020805460ff1916600117905562000231640100000000620002c7810204565b600160a060020a031681600160a060020a0316837f2f8788117e7eff1d82e926ec794901d17c78024a50270940304540a733656f0d60405160405180910390a45050565b60006200029583600160a060020a038416640100000000620002cb810204565b90505b92915050565b600091825260208281526040808420600160a060020a0393909316845291905290205460ff1690565b3390565b6000620002e2838364010000000062000323810204565b6200031a5750815460018181018455600084815260208082209093018490558454848252828601909352604090209190915562000298565b50600062000298565b60009081526001919091016020526040902054151590565b82805462000349906200054b565b90600052602060002090601f0160209004810192826200036d5760008555620003b8565b82601f106200038857805160ff1916838001178555620003b8565b82800160010185558215620003b8579182015b82811115620003b85782518255916020019190600101906200039b565b50620003c6929150620003ca565b5090565b5b80821115620003c65760008155600101620003cb565b600082601f830112620003f357600080fd5b81516001604060020a0380821115620004105762000410620005a1565b604051601f8301601f19908116603f011681019082821181831017156200043b576200043b620005a1565b816040528381526020925086838588010111156200045857600080fd5b600091505b838210156200047c57858201830151818301840152908201906200045d565b838211156200048e5760008385830101525b9695505050505050565b60008060008060808587031215620004af57600080fd5b84516001604060020a0380821115620004c757600080fd5b620004d588838901620003e1565b95506020870151915080821115620004ec57600080fd5b620004fa88838901620003e1565b945060408701519150808211156200051157600080fd5b506200052087828801620003e1565b60608701519093509050600160a060020a03811681146200054057600080fd5b939692955090935050565b6002810460018216806200056057607f821691505b602082108114156200059b577f4e487b7100000000000000000000000000000000000000000000000000000000600052602260045260246000fd5b50919050565b7f4e487b7100000000000000000000000000000000000000000000000000000000600052604160045260246000fd5b61350b80620005e06000396000f3fe608060405234801561001057600080fd5b50600436106101eb576000357c010000000000000000000000000000000000000000000000000000000090048063731133e911610121578063bd85b039116100bf578063e63ab1e91161008e578063e63ab1e914610423578063e985e9c51461044a578063f242432a14610486578063f5298aca1461049957600080fd5b8063bd85b039146103b6578063ca15c873146103d6578063d5391393146103e9578063d547741f1461041057600080fd5b806391d14854116100fb57806391d148541461038057806395d89b4114610393578063a217fddf1461039b578063a22cb465146103a357600080fd5b8063731133e91461033a5780638456cb591461034d5780639010d07c1461035557600080fd5b80632f2ff15d1161018e5780634e1273f4116101685780634e1273f4146102da5780634f558e79146102fa5780635c975abb1461031c5780636b20c4541461032757600080fd5b80632f2ff15d146102ac57806336568abe146102bf5780633f4ba83a146102d257600080fd5b80630e89341c116101ca5780630e89341c1461024e5780631f7fdffa14610261578063248a9ca3146102765780632eb2c2d61461029957600080fd5b8062fdd58e146101f057806301ffc9a71461021657806306fdde0314610239575b600080fd5b6102036101fe366004612a1a565b6104ac565b6040519081526020015b60405180910390f35b610229610224366004612bf9565b61055d565b604051901515815260200161020d565b610241610568565b60405161020d9190612f05565b61024161025c366004612b9b565b6105fa565b61027461026f366004612945565b610605565b005b610203610284366004612b9b565b60009081526020819052604090206001015490565b6102746102a73660046127c2565b610672565b6102746102ba366004612bb4565b6106c1565b6102746102cd366004612bb4565b6106eb565b61027461077a565b6102ed6102e8366004612acc565b610835565b60405161020d9190612ecd565b610229610308366004612b9b565b600090815260066020526040902054151590565b60055460ff16610229565b6102746103353660046128d1565b610976565b610274610348366004612a77565b6109bc565b610274610a23565b610368610363366004612bd7565b610adc565b604051600160a060020a03909116815260200161020d565b61022961038e366004612bb4565b610afb565b610241610b24565b610203600081565b6102746103b13660046129de565b610b33565b6102036103c4366004612b9b565b60009081526006602052604090205490565b6102036103e4366004612b9b565b610b3e565b6102037f9f2df0fed2c77648de5860a4cc508cd0818c85b8b8a1ab4ceeef8d981c8956a681565b61027461041e366004612bb4565b610b55565b6102037f65d7a28e3265b37a6474929f336521b332c1681b933f6cb9f3376673440d862a81565b61022961045836600461278f565b600160a060020a03918216600090815260036020908152604080832093909416825291909152205460ff1690565b61027461049436600461286c565b610b7a565b6102746104a7366004612a44565b610bc2565b6000600160a060020a0383166105325760405160e560020a62461bcd02815260206004820152602a60248201527f455243313135353a2061646472657373207a65726f206973206e6f742061207660448201527f616c6964206f776e65720000000000000000000000000000000000000000000060648201526084015b60405180910390fd5b506000818152600260209081526040808320600160a060020a03861684529091529020545b92915050565b600061055782610ca1565b60606009805461057790613312565b80601f01602080910402602001604051908101604052809291908181526020018280546105a390613312565b80156105f05780601f106105c5576101008083540402835291602001916105f0565b820191906000526020600020905b8154815290600101906020018083116105d357829003601f168201915b5050505050905090565b606061055782610cac565b600554610641907f9f2df0fed2c77648de5860a4cc508cd0818c85b8b8a1ab4ceeef8d981c8956a6906101009004600160a060020a0316610afb565b6106605760405160e560020a62461bcd028152600401610529906130e9565b61066c84848484610cb7565b50505050565b600160a060020a03851633148061068e575061068e8533610458565b6106ad5760405160e560020a62461bcd02815260040161052990612f18565b6106ba8585858585610e27565b5050505050565b6000828152602081905260409020600101546106dc81610feb565b6106e68383610ff8565b505050565b600160a060020a038116331461076c5760405160e560020a62461bcd02815260206004820152602f60248201527f416363657373436f6e74726f6c3a2063616e206f6e6c792072656e6f756e636560448201527f20726f6c657320666f722073656c6600000000000000000000000000000000006064820152608401610529565b610776828261101a565b5050565b6005546107b6907f65d7a28e3265b37a6474929f336521b332c1681b933f6cb9f3376673440d862a906101009004600160a060020a0316610afb565b61082b5760405160e560020a62461bcd02815260206004820152603b60248201527f455243313135355072657365744d696e7465725061757365723a206d7573742060448201527f686176652070617573657220726f6c6520746f20756e706175736500000000006064820152608401610529565b61083361103c565b565b606081518351146108b15760405160e560020a62461bcd02815260206004820152602960248201527f455243313135353a206163636f756e747320616e6420696473206c656e67746860448201527f206d69736d6174636800000000000000000000000000000000000000000000006064820152608401610529565b6000835167ffffffffffffffff8111156108cd576108cd6133e3565b6040519080825280602002602001820160405280156108f6578160200160208202803683370190505b50905060005b845181101561096e5761094185828151811061091a5761091a6133ca565b6020026020010151858381518110610934576109346133ca565b60200260200101516104ac565b828281518110610953576109536133ca565b60209081029190910101526109678161337d565b90506108fc565b509392505050565b600160a060020a03831633148061099257506109928333610458565b6109b15760405160e560020a62461bcd02815260040161052990612f18565b6106e683838361108e565b6005546109f8907f9f2df0fed2c77648de5860a4cc508cd0818c85b8b8a1ab4ceeef8d981c8956a6906101009004600160a060020a0316610afb565b610a175760405160e560020a62461bcd028152600401610529906130e9565b61066c84848484611240565b600554610a5f907f65d7a28e3265b37a6474929f336521b332c1681b933f6cb9f3376673440d862a906101009004600160a060020a0316610afb565b610ad45760405160e560020a62461bcd02815260206004820152603960248201527f455243313135355072657365744d696e7465725061757365723a206d7573742060448201527f686176652070617573657220726f6c6520746f207061757365000000000000006064820152608401610529565b61083361133d565b6000828152600160205260408120610af4908361137a565b9392505050565b600091825260208281526040808420600160a060020a0393909316845291905290205460ff1690565b6060600a805461057790613312565b610776338383611386565b60008181526001602052604081206105579061147e565b600082815260208190526040902060010154610b7081610feb565b6106e6838361101a565b600160a060020a038516331480610b965750610b968533610458565b610bb55760405160e560020a62461bcd02815260040161052990612f18565b6106ba8585858585611488565b600160a060020a038316331480610bde5750610bde8333610458565b610bfd5760405160e560020a62461bcd02815260040161052990612f18565b6106e68383836115d8565b610c128282610afb565b61077657600082815260208181526040808320600160a060020a03851684529091529020805460ff19166001179055610c483390565b600160a060020a031681600160a060020a0316837f2f8788117e7eff1d82e926ec794901d17c78024a50270940304540a733656f0d60405160405180910390a45050565b6000610af483600160a060020a038416611704565b600061055782611753565b6060610557826117c5565b600160a060020a038416610ce05760405160e560020a62461bcd02815260040161052990613200565b8151835114610d045760405160e560020a62461bcd028152600401610529906131a3565b33610d14816000878787876118a4565b60005b8451811015610db057838181518110610d3257610d326133ca565b602002602001015160026000878481518110610d5057610d506133ca565b60200260200101518152602001908152602001600020600088600160a060020a0316600160a060020a031681526020019081526020016000206000828254610d989190613281565b90915550819050610da88161337d565b915050610d17565b5084600160a060020a03166000600160a060020a031682600160a060020a03167f4a39dc06d4c0dbc64b70af90fd698a233a518aa5d07e595d983b8c0526c8f7fb8787604051610e01929190612ee0565b60405180910390a4610e18816000878787876118b2565b6106ba816000878787876118c0565b8151835114610e4b5760405160e560020a62461bcd028152600401610529906131a3565b600160a060020a038416610e745760405160e560020a62461bcd0281526004016105299061302f565b33610e838187878787876118a4565b60005b8451811015610f6f576000858281518110610ea357610ea36133ca565b602002602001015190506000858381518110610ec157610ec16133ca565b6020908102919091018101516000848152600283526040808220600160a060020a038e168352909352919091205490915081811015610f155760405160e560020a62461bcd02815260040161052990613146565b6000838152600260209081526040808320600160a060020a038e8116855292528083208585039055908b16825281208054849290610f54908490613281565b9250508190555050505080610f689061337d565b9050610e86565b5084600160a060020a031686600160a060020a031682600160a060020a03167f4a39dc06d4c0dbc64b70af90fd698a233a518aa5d07e595d983b8c0526c8f7fb8787604051610fbf929190612ee0565b60405180910390a4610fd58187878787876118b2565b610fe38187878787876118c0565b505050505050565b610ff58133611a6f565b50565b6110028282610c08565b60008281526001602052604090206106e69082610c8c565b6110248282611ad6565b60008281526001602052604090206106e69082611b3b565b611044611b50565b6005805460ff191690557f5db9ee0a495bf2e6ff9c91a7834c1ba4fdd244a5e8aa4e537bd38aeae4b073aa335b604051600160a060020a03909116815260200160405180910390a1565b600160a060020a0383166110b75760405160e560020a62461bcd0281526004016105299061308c565b80518251146110db5760405160e560020a62461bcd028152600401610529906131a3565b60003390506110fe818560008686604051806020016040528060008152506118a4565b60005b83518110156111c957600084828151811061111e5761111e6133ca565b60200260200101519050600084838151811061113c5761113c6133ca565b6020908102919091018101516000848152600283526040808220600160a060020a038c1683529093529190912054909150818110156111905760405160e560020a62461bcd02815260040161052990612fd2565b6000928352600260209081526040808520600160a060020a038b16865290915290922091039055806111c18161337d565b915050611101565b506000600160a060020a031684600160a060020a031682600160a060020a03167f4a39dc06d4c0dbc64b70af90fd698a233a518aa5d07e595d983b8c0526c8f7fb868660405161121a929190612ee0565b60405180910390a461066c818560008686604051806020016040528060008152506118b2565b600160a060020a0384166112695760405160e560020a62461bcd02815260040161052990613200565b33600061127585611ba5565b9050600061128285611ba5565b9050611293836000898585896118a4565b6000868152600260209081526040808320600160a060020a038b168452909152812080548792906112c5908490613281565b90915550506040805187815260208101879052600160a060020a03808a1692600092918716917fc3d58168c5ae7397731d063d5bbf3d657854427343f4c083240f7aacaa2d0f62910160405180910390a4611325836000898585896118b2565b61133483600089898989611bf0565b50505050505050565b611345611cef565b6005805460ff191660011790557f62e78cea01bee320cd4e420270b5ea74000d11b0c9f74754ebdbfc544b05a2586110713390565b6000610af48383611d45565b81600160a060020a031683600160a060020a031614156114115760405160e560020a62461bcd02815260206004820152602960248201527f455243313135353a2073657474696e6720617070726f76616c2073746174757360448201527f20666f722073656c6600000000000000000000000000000000000000000000006064820152608401610529565b600160a060020a03838116600081815260036020908152604080832094871680845294825291829020805460ff191686151590811790915591519182527f17307eab39ab6107e8899845ad3d59bd9653f200f220920489ca2b5937696c31910160405180910390a3505050565b6000610557825490565b600160a060020a0384166114b15760405160e560020a62461bcd0281526004016105299061302f565b3360006114bd85611ba5565b905060006114ca85611ba5565b90506114da8389898585896118a4565b6000868152600260209081526040808320600160a060020a038c168452909152902054858110156115205760405160e560020a62461bcd02815260040161052990613146565b6000878152600260209081526040808320600160a060020a038d8116855292528083208985039055908a1682528120805488929061155f908490613281565b90915550506040805188815260208101889052600160a060020a03808b16928c821692918816917fc3d58168c5ae7397731d063d5bbf3d657854427343f4c083240f7aacaa2d0f62910160405180910390a46115bf848a8a86868a6118b2565b6115cd848a8a8a8a8a611bf0565b505050505050505050565b600160a060020a0383166116015760405160e560020a62461bcd0281526004016105299061308c565b33600061160d84611ba5565b9050600061161a84611ba5565b905061163a838760008585604051806020016040528060008152506118a4565b6000858152600260209081526040808320600160a060020a038a168452909152902054848110156116805760405160e560020a62461bcd02815260040161052990612fd2565b6000868152600260209081526040808320600160a060020a038b81168086529184528285208a8703905582518b81529384018a90529092908816917fc3d58168c5ae7397731d063d5bbf3d657854427343f4c083240f7aacaa2d0f62910160405180910390a4611334848860008686604051806020016040528060008152506118b2565b600081815260018301602052604081205461174b57508154600181810184556000848152602080822090930184905584548482528286019093526040902091909155610557565b506000610557565b6000600160e060020a031982167fd9b67a260000000000000000000000000000000000000000000000000000000014806117b65750600160e060020a031982167f0e89341c00000000000000000000000000000000000000000000000000000000145b80610557575061055782611d6f565b6000818152600860205260408120805460609291906117e390613312565b80601f016020809104026020016040519081016040528092919081815260200182805461180f90613312565b801561185c5780601f106118315761010080835404028352916020019161185c565b820191906000526020600020905b81548152906001019060200180831161183f57829003601f168201915b50505050509050600081511161187a5761187583611dad565b610af4565b60078160405160200161188e929190612d01565b6040516020818303038152906040529392505050565b610fe3868686868686611e41565b610fe3868686868686611f59565b600160a060020a0384163b15610fe3576040517fbc197c81000000000000000000000000000000000000000000000000000000008152600160a060020a0385169063bc197c819061191d9089908990889088908890600401612e2c565b602060405180830381600087803b15801561193757600080fd5b505af1925050508015611967575060408051601f3d908101601f1916820190925261196491810190612c16565b60015b611a23576119736133fc565b806308c379a014156119b05750611988613435565b8061199357506119b2565b8060405160e560020a62461bcd0281526004016105299190612f05565b505b60405160e560020a62461bcd02815260206004820152603460248201527f455243313135353a207472616e7366657220746f206e6f6e204552433131353560448201527f526563656976657220696d706c656d656e7465720000000000000000000000006064820152608401610529565b600160e060020a031981167fbc197c8100000000000000000000000000000000000000000000000000000000146113345760405160e560020a62461bcd02815260040161052990612f75565b611a798282610afb565b61077657611a9181600160a060020a03166014611fc5565b611a9c836020611fc5565b604051602001611aad929190612dab565b60408051601f198184030181529082905260e560020a62461bcd02825261052991600401612f05565b611ae08282610afb565b1561077657600082815260208181526040808320600160a060020a0385168085529252808320805460ff1916905551339285917ff6391f5c32d9c69d2a47ea670b442974b53935d1edc7fd64eb21e047a839171b9190a45050565b6000610af483600160a060020a03841661220f565b60055460ff166108335760405160e560020a62461bcd02815260206004820152601460248201527f5061757361626c653a206e6f74207061757365640000000000000000000000006044820152606401610529565b60408051600180825281830190925260609160009190602080830190803683370190505090508281600081518110611bdf57611bdf6133ca565b602090810291909101015292915050565b600160a060020a0384163b15610fe3576040517ff23a6e61000000000000000000000000000000000000000000000000000000008152600160a060020a0385169063f23a6e6190611c4d9089908990889088908890600401612e8a565b602060405180830381600087803b158015611c6757600080fd5b505af1925050508015611c97575060408051601f3d908101601f19168201909252611c9491810190612c16565b60015b611ca3576119736133fc565b600160e060020a031981167ff23a6e6100000000000000000000000000000000000000000000000000000000146113345760405160e560020a62461bcd02815260040161052990612f75565b60055460ff16156108335760405160e560020a62461bcd02815260206004820152601060248201527f5061757361626c653a20706175736564000000000000000000000000000000006044820152606401610529565b6000826000018281548110611d5c57611d5c6133ca565b9060005260206000200154905092915050565b6000600160e060020a031982167f5a05180f000000000000000000000000000000000000000000000000000000001480610557575061055782612302565b606060048054611dbc90613312565b80601f0160208091040260200160405190810160405280929190818152602001828054611de890613312565b8015611e355780601f10611e0a57610100808354040283529160200191611e35565b820191906000526020600020905b815481529060010190602001808311611e1857829003601f168201915b50505050509050919050565b600160a060020a038516611f4b5760005b8351811015611f495760008181526006602052604090205415611f3957611e7960d5611dad565b82604051602001611e8b929190612cd2565b60405160208183030381529060405280519060200120611ec3858381518110611eb657611eb66133ca565b60200260200101516105fa565b604051602001611ed39190612cb6565b6040516020818303038152906040528051906020012014611f395760405160e560020a62461bcd02815260206004820152601060248201527f43616e2774206265206d696e7465642e000000000000000000000000000000006044820152606401610529565b611f428161337d565b9050611e52565b505b610fe3868686868686612369565b600160a060020a038516610fe35760005b835181101561133457611fb5848281518110611f8857611f886133ca565b602002602001015183604051602001611fa19190612cb6565b604051602081830303815290604052612508565b611fbe8161337d565b9050611f6a565b60606000611fd4836002613299565b611fdf906002613281565b67ffffffffffffffff811115611ff757611ff76133e3565b6040519080825280601f01601f191660200182016040528015612021576020820181803683370190505b5090507f300000000000000000000000000000000000000000000000000000000000000081600081518110612058576120586133ca565b60200101907effffffffffffffffffffffffffffffffffffffffffffffffffffffffffffff1916908160001a9053507f7800000000000000000000000000000000000000000000000000000000000000816001815181106120bb576120bb6133ca565b60200101907effffffffffffffffffffffffffffffffffffffffffffffffffffffffffffff1916908160001a90535060006120f7846002613299565b612102906001613281565b90505b60018111156121bd577f303132333435363738396162636465660000000000000000000000000000000085600f1660108110612143576121436133ca565b1a7f010000000000000000000000000000000000000000000000000000000000000002828281518110612178576121786133ca565b60200101907effffffffffffffffffffffffffffffffffffffffffffffffffffffffffffff1916908160001a9053506010909404936121b6816132fb565b9050612105565b508315610af45760405160e560020a62461bcd02815260206004820181905260248201527f537472696e67733a20686578206c656e67746820696e73756666696369656e746044820152606401610529565b600081815260018301602052604081205480156122f85760006122336001836132b8565b8554909150600090612247906001906132b8565b90508181146122ac576000866000018281548110612267576122676133ca565b906000526020600020015490508087600001848154811061228a5761228a6133ca565b6000918252602080832090910192909255918252600188019052604090208390555b85548690806122bd576122bd6133b1565b600190038181906000526020600020016000905590558560010160008681526020019081526020016000206000905560019350505050610557565b6000915050610557565b6000600160e060020a031982167f7965db0b00000000000000000000000000000000000000000000000000000000148061055757507f01ffc9a700000000000000000000000000000000000000000000000000000000600160e060020a0319831614610557565b61237786868686868661256c565b600160a060020a0385166123fe5760005b83518110156123fc578281815181106123a3576123a36133ca565b6020026020010151600660008684815181106123c1576123c16133ca565b6020026020010151815260200190815260200160002060008282546123e69190613281565b909155506123f590508161337d565b9050612388565b505b600160a060020a038416610fe35760005b835181101561133457600084828151811061242c5761242c6133ca565b60200260200101519050600084838151811061244a5761244a6133ca565b60200260200101519050600060066000848152602001908152602001600020549050818110156124e55760405160e560020a62461bcd02815260206004820152602860248201527f455243313135353a206275726e20616d6f756e74206578636565647320746f7460448201527f616c537570706c790000000000000000000000000000000000000000000000006064820152608401610529565b600092835260066020526040909220910390556125018161337d565b905061240f565b60008281526008602090815260409091208251612527928401906125f1565b50817f6bb7ff708619ba0610cba295a58592e0451dee2622938c8755667688daf3529b612553846105fa565b6040516125609190612f05565b60405180910390a25050565b610fe386868686868660055460ff1615610fe35760405160e560020a62461bcd02815260206004820152602c60248201527f455243313135355061757361626c653a20746f6b656e207472616e736665722060448201527f7768696c652070617573656400000000000000000000000000000000000000006064820152608401610529565b8280546125fd90613312565b90600052602060002090601f01602090048101928261261f5760008555612665565b82601f1061263857805160ff1916838001178555612665565b82800160010185558215612665579182015b8281111561266557825182559160200191906001019061264a565b50612671929150612675565b5090565b5b808211156126715760008155600101612676565b8035600160a060020a03811681146126a157600080fd5b919050565b600082601f8301126126b757600080fd5b813560206126c48261325d565b6040516126d18282613350565b8381528281019150858301838502870184018810156126ef57600080fd5b60005b8581101561270e578135845292840192908401906001016126f2565b5090979650505050505050565b600082601f83011261272c57600080fd5b813567ffffffffffffffff811115612746576127466133e3565b60405161275d601f8301601f191660200182613350565b81815284602083860101111561277257600080fd5b816020850160208301376000918101602001919091529392505050565b600080604083850312156127a257600080fd5b6127ab8361268a565b91506127b96020840161268a565b90509250929050565b600080600080600060a086880312156127da57600080fd5b6127e38661268a565b94506127f16020870161268a565b9350604086013567ffffffffffffffff8082111561280e57600080fd5b61281a89838a016126a6565b9450606088013591508082111561283057600080fd5b61283c89838a016126a6565b9350608088013591508082111561285257600080fd5b5061285f8882890161271b565b9150509295509295909350565b600080600080600060a0868803121561288457600080fd5b61288d8661268a565b945061289b6020870161268a565b93506040860135925060608601359150608086013567ffffffffffffffff8111156128c557600080fd5b61285f8882890161271b565b6000806000606084860312156128e657600080fd5b6128ef8461268a565b9250602084013567ffffffffffffffff8082111561290c57600080fd5b612918878388016126a6565b9350604086013591508082111561292e57600080fd5b5061293b868287016126a6565b9150509250925092565b6000806000806080858703121561295b57600080fd5b6129648561268a565b9350602085013567ffffffffffffffff8082111561298157600080fd5b61298d888389016126a6565b945060408701359150808211156129a357600080fd5b6129af888389016126a6565b935060608701359150808211156129c557600080fd5b506129d28782880161271b565b91505092959194509250565b600080604083850312156129f157600080fd5b6129fa8361268a565b915060208301358015158114612a0f57600080fd5b809150509250929050565b60008060408385031215612a2d57600080fd5b612a368361268a565b946020939093013593505050565b600080600060608486031215612a5957600080fd5b612a628461268a565b95602085013595506040909401359392505050565b60008060008060808587031215612a8d57600080fd5b612a968561268a565b93506020850135925060408501359150606085013567ffffffffffffffff811115612ac057600080fd5b6129d28782880161271b565b60008060408385031215612adf57600080fd5b823567ffffffffffffffff80821115612af757600080fd5b818501915085601f830112612b0b57600080fd5b81356020612b188261325d565b604051612b258282613350565b8381528281019150858301838502870184018b1015612b4357600080fd5b600096505b84871015612b6d57612b598161268a565b835260019690960195918301918301612b48565b5096505086013592505080821115612b8457600080fd5b50612b91858286016126a6565b9150509250929050565b600060208284031215612bad57600080fd5b5035919050565b60008060408385031215612bc757600080fd5b823591506127b96020840161268a565b60008060408385031215612bea57600080fd5b50508035926020909101359150565b600060208284031215612c0b57600080fd5b8135610af4816134bf565b600060208284031215612c2857600080fd5b8151610af4816134bf565b600081518084526020808501945080840160005b83811015612c6357815187529582019590820190600101612c47565b509495945050505050565b60008151808452612c868160208601602086016132cf565b601f01601f19169290920160200192915050565b60008151612cac8185602086016132cf565b9290920192915050565b60008251612cc88184602087016132cf565b9190910192915050565b60008351612ce48184602088016132cf565b835190830190612cf88183602088016132cf565b01949350505050565b8254600090819060028104600180831680612d1d57607f831692505b6020808410821415612d405760e060020a634e487b710286526022600452602486fd5b818015612d545760018114612d6557612d92565b60ff19861689528489019650612d92565b60008b81526020902060005b86811015612d8a5781548b820152908501908301612d71565b505084890196505b505050505050612da28185612c9a565b95945050505050565b7f416363657373436f6e74726f6c3a206163636f756e7420000000000000000000815260008351612de38160178501602088016132cf565b7f206973206d697373696e6720726f6c65200000000000000000000000000000006017918401918201528351612e208160288401602088016132cf565b01602801949350505050565b6000600160a060020a03808816835280871660208401525060a06040830152612e5860a0830186612c33565b8281036060840152612e6a8186612c33565b90508281036080840152612e7e8185612c6e565b98975050505050505050565b6000600160a060020a03808816835280871660208401525084604083015283606083015260a06080830152612ec260a0830184612c6e565b979650505050505050565b602081526000610af46020830184612c33565b604081526000612ef36040830185612c33565b8281036020840152612da28185612c33565b602081526000610af46020830184612c6e565b6020808252602f908201527f455243313135353a2063616c6c6572206973206e6f7420746f6b656e206f776e60408201527f6572206e6f7220617070726f7665640000000000000000000000000000000000606082015260800190565b60208082526028908201527f455243313135353a204552433131353552656365697665722072656a6563746560408201527f6420746f6b656e73000000000000000000000000000000000000000000000000606082015260800190565b60208082526024908201527f455243313135353a206275726e20616d6f756e7420657863656564732062616c60408201527f616e636500000000000000000000000000000000000000000000000000000000606082015260800190565b60208082526025908201527f455243313135353a207472616e7366657220746f20746865207a65726f20616460408201527f6472657373000000000000000000000000000000000000000000000000000000606082015260800190565b60208082526023908201527f455243313135353a206275726e2066726f6d20746865207a65726f206164647260408201527f6573730000000000000000000000000000000000000000000000000000000000606082015260800190565b60208082526038908201527f455243313135355072657365744d696e7465725061757365723a206d7573742060408201527f68617665206d696e74657220726f6c6520746f206d696e740000000000000000606082015260800190565b6020808252602a908201527f455243313135353a20696e73756666696369656e742062616c616e636520666f60408201527f72207472616e7366657200000000000000000000000000000000000000000000606082015260800190565b60208082526028908201527f455243313135353a2069647320616e6420616d6f756e7473206c656e6774682060408201527f6d69736d61746368000000000000000000000000000000000000000000000000606082015260800190565b60208082526021908201527f455243313135353a206d696e7420746f20746865207a65726f2061646472657360408201527f7300000000000000000000000000000000000000000000000000000000000000606082015260800190565b600067ffffffffffffffff821115613277576132776133e3565b5060209081020190565b6000821982111561329457613294613398565b500190565b60008160001904831182151516156132b3576132b3613398565b500290565b6000828210156132ca576132ca613398565b500390565b60005b838110156132ea5781810151838201526020016132d2565b8381111561066c5750506000910152565b60008161330a5761330a613398565b506000190190565b60028104600182168061332657607f821691505b6020821081141561334a5760e060020a634e487b7102600052602260045260246000fd5b50919050565b601f8201601f1916810167ffffffffffffffff81118282101715613376576133766133e3565b6040525050565b600060001982141561339157613391613398565b5060010190565b60e060020a634e487b7102600052601160045260246000fd5b60e060020a634e487b7102600052603160045260246000fd5b60e060020a634e487b7102600052603260045260246000fd5b60e060020a634e487b7102600052604160045260246000fd5b600060033d11156134325760046000803e7c01000000000000000000000000000000000000000000000000000000006000510490505b90565b600060443d10156134435790565b6040516003193d81016004833e81513d67ffffffffffffffff816024840111818411171561347357505050505090565b828501915081518181111561348b5750505050505090565b843d87010160208285010111156134a55750505050505090565b6134b460208286010187613350565b509095945050505050565b600160e060020a031981168114610ff557600080fdfea264697066735822122091767c3820d58c174b190a073030c500dfb6bdb61db4e9525871f66317c1c22d64736f6c63430008060033a26469706673582212208ac99e2f944e4ae1930d2de5f536ce419a39a53741cdf226f7a32eb2b8ea1e6c64736f6c63430008060033",
  "immutableReferences": {},
  "source": "// SPDX-License-Identifier: MIT\npragma solidity >=0.4.22 <0.9.0;\n\nimport \"./ERC1155Token.sol\";\nimport \"./ERC1155TokenEnumerable.sol\";\n\ncontract ERC1155TokenFactory is ERC1155TokenEnumerable {\n    event CreateNewERC1155Token(string name, address contractAddress);\n\n    ERC1155Token[] public ERC1155TokenArray;\n\n    constructor() {}\n\n    function createNewERC1155Token(string memory name, string memory symbol, string memory baseURI) public onlyEmptyName(name) {\n        ERC1155Token erc1155Token = new ERC1155Token(name, symbol, baseURI, msg.sender);\n        ERC1155TokenArray.push(erc1155Token);\n\n        setContractAddressByName(name, address(erc1155Token));\n\n        emit CreateNewERC1155Token(name, address(erc1155Token));\n    }\n\n    function totalDeployedContract() public view returns(uint256) {\n        return ERC1155TokenArray.length;\n    }\n}\n",
  "sourcePath": "/Users/jangseongho/Desktop/Lycle/nft-marketplace/truffle/contracts/ERC1155TokenFactory.sol",
  "compiler": {
    "name": "solc",
    "version": "0.8.6+commit.11564f7e.Emscripten.clang"
  },
  "schemaVersion": "3.4.8",
  "updatedAt": "2022-11-05T19:58:17.493Z",
  "networkType": "ethereum",
  "devdoc": {
    "kind": "dev",
    "methods": {},
    "version": 1
  },
  "userdoc": {
    "kind": "user",
    "methods": {},
    "version": 1
  }
}